{
  "address": "0xb5e2f5377460Ea97A54E6C891B87a9cA6E161D56",
  "abi": [
    {
      "inputs": [
        {
          "internalType": "string",
          "name": "_owner",
          "type": "string"
        }
      ],
      "stateMutability": "nonpayable",
      "type": "constructor"
    },
    {
      "inputs": [
        {
          "components": [
            {
              "internalType": "string",
              "name": "new_beneficiary",
              "type": "string"
            },
            {
              "internalType": "int256",
              "name": "new_quota",
              "type": "int256"
            },
            {
              "internalType": "uint64",
              "name": "new_expiration",
              "type": "uint64"
            }
          ],
          "internalType": "struct MinerTypes.ChangeBeneficiaryParams",
          "name": "params",
          "type": "tuple"
        }
      ],
      "name": "change_beneficiary",
      "outputs": [],
      "stateMutability": "nonpayable",
      "type": "function"
    },
    {
      "inputs": [
        {
          "internalType": "string",
          "name": "addr",
          "type": "string"
        }
      ],
      "name": "change_owner_address",
      "outputs": [],
      "stateMutability": "nonpayable",
      "type": "function"
    },
    {
      "inputs": [],
      "name": "get_available_balance",
      "outputs": [
        {
          "components": [
            {
              "internalType": "int256",
              "name": "available_balance",
              "type": "int256"
            }
          ],
          "internalType": "struct MinerTypes.GetAvailableBalanceReturn",
          "name": "",
          "type": "tuple"
        }
      ],
      "stateMutability": "pure",
      "type": "function"
    },
    {
      "inputs": [],
      "name": "get_beneficiary",
      "outputs": [
        {
          "components": [
            {
              "components": [
                {
                  "internalType": "string",
                  "name": "beneficiary",
                  "type": "string"
                },
                {
                  "components": [
                    {
                      "internalType": "int256",
                      "name": "quota",
                      "type": "int256"
                    },
                    {
                      "internalType": "int256",
                      "name": "used_quota",
                      "type": "int256"
                    },
                    {
                      "internalType": "uint64",
                      "name": "expiration",
                      "type": "uint64"
                    }
                  ],
                  "internalType": "struct CommonTypes.BeneficiaryTerm",
                  "name": "term",
                  "type": "tuple"
                }
              ],
              "internalType": "struct CommonTypes.ActiveBeneficiary",
              "name": "active",
              "type": "tuple"
            },
            {
              "components": [
                {
                  "internalType": "bytes",
                  "name": "new_beneficiary",
                  "type": "bytes"
                },
                {
                  "internalType": "int256",
                  "name": "new_quota",
                  "type": "int256"
                },
                {
                  "internalType": "uint64",
                  "name": "new_expiration",
                  "type": "uint64"
                },
                {
                  "internalType": "bool",
                  "name": "approved_by_beneficiary",
                  "type": "bool"
                },
                {
                  "internalType": "bool",
                  "name": "approved_by_nominee",
                  "type": "bool"
                }
              ],
              "internalType": "struct CommonTypes.PendingBeneficiaryChange",
              "name": "proposed",
              "type": "tuple"
            }
          ],
          "internalType": "struct MinerTypes.GetBeneficiaryReturn",
          "name": "",
          "type": "tuple"
        }
      ],
      "stateMutability": "view",
      "type": "function"
    },
    {
      "inputs": [],
      "name": "get_owner",
      "outputs": [
        {
          "components": [
            {
              "internalType": "string",
              "name": "owner",
              "type": "string"
            }
          ],
          "internalType": "struct MinerTypes.GetOwnerReturn",
          "name": "",
          "type": "tuple"
        }
      ],
      "stateMutability": "view",
      "type": "function"
    },
    {
      "inputs": [],
      "name": "get_sector_size",
      "outputs": [
        {
          "components": [
            {
              "internalType": "uint64",
              "name": "sector_size",
              "type": "uint64"
            }
          ],
          "internalType": "struct MinerTypes.GetSectorSizeReturn",
          "name": "",
          "type": "tuple"
        }
      ],
      "stateMutability": "view",
      "type": "function"
    },
    {
      "inputs": [],
      "name": "get_vesting_funds",
      "outputs": [
        {
          "components": [
            {
              "components": [
                {
                  "internalType": "int64",
                  "name": "epoch",
                  "type": "int64"
                },
                {
                  "internalType": "int256",
                  "name": "amount",
                  "type": "int256"
                }
              ],
              "internalType": "struct CommonTypes.VestingFunds[]",
              "name": "vesting_funds",
              "type": "tuple[]"
            }
          ],
          "internalType": "struct MinerTypes.GetVestingFundsReturn",
          "name": "",
          "type": "tuple"
        }
      ],
      "stateMutability": "pure",
      "type": "function"
    },
    {
      "inputs": [
        {
          "components": [
            {
              "internalType": "string",
              "name": "addr",
              "type": "string"
            }
          ],
          "internalType": "struct MinerTypes.IsControllingAddressParam",
          "name": "params",
          "type": "tuple"
        }
      ],
      "name": "is_controlling_address",
      "outputs": [
        {
          "components": [
            {
              "internalType": "bool",
              "name": "is_controlling",
              "type": "bool"
            }
          ],
          "internalType": "struct MinerTypes.IsControllingAddressReturn",
          "name": "",
          "type": "tuple"
        }
      ],
      "stateMutability": "pure",
      "type": "function"
    },
    {
      "inputs": [
        {
          "internalType": "string",
          "name": "addr",
          "type": "string"
        }
      ],
      "name": "mock_set_owner",
      "outputs": [],
      "stateMutability": "nonpayable",
      "type": "function"
    }
  ],
  "transactionHash": "0x07dd9fcc029a2e72f51e9abee8fac9d4103bed344dd6e082e8572edb26bae351",
  "args": [
    1
  ],
  "numDeployments": 1,
  "solcInputHash": "7243697f0458b8069f5525ae1300af2f",
  "bytecode": "0x604060808152346200028557620010ad803803806200001e816200028a565b928339810160208083830312620002855782516001600160401b039384821162000285570192601f838186011215620002855784518281116200025a57601f199562000070828401881686016200028a565b958287528583830101116200028557849060005b838110620002705750506000918601015260019460ff19865416865584519283116200025a576000548681811c911680156200024f575b858210146200023957828111620001ee575b508391831160011462000188575081906006946000926200017c575b5050600019600383901b1c191690841b176000555b6000805252816000209060018060401b03199161080083825416179055600052816000206280000082825416179055600260005281600020632000000082825416179055600360005281600020640800000000828254161790556004600052641000000000826000209182541617905551610dfc9081620002b18239f35b015190503880620000e9565b600080805284812091841695879493915b878110620001d657508360069710620001bc575b505050811b01600055620000fe565b015160001960f88460031b161c19169055388080620001ad565b82820151845588959093019291860191860162000199565b60008052846000208380860160051c8201928787106200022f575b0160051c019087905b82811062000222575050620000cd565b6000815501879062000212565b9250819262000209565b634e487b7160e01b600052602260045260246000fd5b90607f1690620000bb565b634e487b7160e01b600052604160045260246000fd5b81810183015188820184015286920162000084565b600080fd5b6040519190601f01601f191682016001600160401b038111838210176200025a5760405256fe608060408181526004918236101561001657600080fd5b600091823560e01c9182630ac298dc14610ac857508163207f2cec14610994578163214c471c1461089657816359cf9e171461085557816381ab68dd146104bb578163a9b494a114610478578163d9fc907e1461027f578163e8d38633146101fe575063f5cd020c1461008857600080fd5b346101fb576020806003193601126101f7576001600160401b039083358281116101f3576100b99036908601610c92565b938354906100c682610ced565b6101ef5785519384116101dc57506100dd90610ced565b601f811161018d575b5080601f831160011461012057508293829392610115575b50508160011b916000199060031b1c191617815580f35b0151905038806100fe565b838052601f19831694600080516020610da7833981519152929185905b87821061017557505083600195961061015c575b505050811b01815580f35b015160001960f88460031b161c19169055388080610151565b8060018596829496860151815501950193019061013d565b838052600080516020610da7833981519152601f840160051c8101918385106101d2575b601f0160051c01905b8181106101c757506100e6565b8481556001016101ba565b90915081906101b1565b634e487b7160e01b855260419052602484fd5b8480fd5b8380fd5b5080fd5b80fd5b9050346101f75760031960203682011261027b578335936001600160401b03918286116101ef5760209086360301126101f35782519161023d83610c0a565b858201359081116101ef57946102599160209636920101610c92565b905281815161026781610c0a565b5281815161027481610c0a565b5251908152f35b8280fd5b8284346101f757816003193601126101f75782519061029d82610c3b565b8351916102a983610c3b565b606083528451926102b984610c56565b84845260209385858201528587820152848201528152826102d8610d4a565b91015260019060ff825416156101f3576102f0610d4a565b918551946102fd86610c3b565b86519161030983610c3b565b87519180916002549161031b83610ced565b9283865289838216918260001461045257505060011461040c575b505050918161034b6080959386950382610c71565b815287519161035983610c56565b600354835254868301526001600160401b03918260055416898201528682015286528486019384528651968796868852519481878901528282886103a98b8860608c5192015260e08d0190610bca565b9801518051878c01528981015160a08c015201511660c08901525191601f1988870301828901526103e3835160a0885260a0880190610bca565b968084015190870152818301511690850152606081015115156060850152015115159101520390f35b919088935060028352600080516020610d878339815191525b82841061043d575050508201018161034b6080610336565b80548685018601528994909301928101610425565b60ff19168188015293151560051b8601909301935084925061034b915060809050610336565b9050346101f757816003193601126101f7576001600160401b03818360209482516104a281610c0a565b5260018152600685522054169081815161027481610c0a565b8284346101f7576020926003199084823601126101f3578235946001600160401b03928387116108515760609087360301126101ef578151936104fd85610c56565b8681013584811161084d57610517908236918a0101610c92565b9485815260448382019860248101358a5201359785891689036108495784820198895260019660ff885416156000146106e5575085905198511684519861055d8a610c56565b895287848a015284890152519682845161057681610c3b565b8981520190815287518581116106d257610591600254610ced565b601f811161067f575b5083601f821160011461060e578190899a6105f6999a92610603575b5050600019600383901b1c191690881b176002555b5191825160035582015190550151166001600160401b03166001600160401b03196005541617600555565b805460ff19168117905580f35b015190508a806105b6565b60028952600080516020610d8783398151915299601f1983168a5b81811061066a575091899a9b91846105f69b959410610651575b505050811b016002556105cb565b015160001960f88460031b161c191690558a8080610643565b828401518d559b8a019b928701928701610629565b60028952600080516020610d87833981519152601f830160051c8101918684106106c8575b601f0160051c019088905b8281106106bd57505061059a565b8a81550188906106af565b90915081906106a4565b634e487b7160e01b885260418352602488fd5b915093508097949592919751978689116108365750610705600254610ced565b601f81116107e3575b5081601f89116001146107705750968092819288996107629994610765575b50501b916000199060031b1c1916176002555b5160035551166001600160401b03166001600160401b03196005541617600555565b80f35b01519250898061072d565b60028852601f1989169892600080516020610d8783398151915292909189905b8b82106107cc57505083610762999a106107b3575b505050811b01600255610740565b015160001960f88460031b161c191690558780806107a5565b808785968294968601518155019501930190610790565b60028852600080516020610d87833981519152601f8a0160051c810191848b1061082c575b601f0160051c019084905b82811061082157505061070e565b898155018490610813565b9091508190610808565b634e487b7160e01b885260419052602487fd5b8780fd5b8680fd5b8580fd5b9050346101f757816003193601126101f757602091815161087581610c0a565b5280519061088282610c0a565b69021e19e0c9bab240000080925251908152f35b9050346101f757816003193601126101f757606081516108b581610c0a565b5280516108c181610c3b565b600190818152835b602090818110156108f55784516020926108e282610c3b565b87825287818301528285010152016108c9565b50509291909181519261090784610c3b565b63637384098452602093686c6b935b8bbd4000008582015261092886610d27565b5261093285610d27565b5082519461093f86610c0a565b85528251948486958652848601915194818088015285518093528160608801960194905b8382106109705787870388f35b8551805160070b885283015187840152889750958601959482019490840190610963565b5050346101fb576020806003193601126101f7576001600160401b039083358281116101f3576109c79036908601610c92565b938451928311610ab557506109dc8354610ced565b601f8111610a66575b5080601f8311600114610a13575082938293926101155750508160011b916000199060031b1c191617815580f35b838052601f19831694600080516020610da7833981519152929185905b878210610a4e57505083600195961061015c57505050811b01815580f35b80600185968294968601518155019501930190610a30565b838052600080516020610da7833981519152601f840160051c810191838510610aab575b601f0160051c01905b818110610aa057506109e5565b848155600101610a93565b9091508190610a8a565b634e487b7160e01b845260419052602483fd5b8390346101f757816003193601126101f75780610ae6606092610c0a565b528054610af281610ced565b156101f757825191610b0383610c0a565b835180928290610b1281610ced565b80845293600191808316908115610ba65750600114610b5c575b5050610b3a92500382610c71565b8152610b588251928392602084525190602080850152830190610bca565b0390f35b8080935052600080516020610da78339815191525b848310610b8b5750610b3a93505081016020018680610b2c565b81935090816020925483858901015201910190918492610b71565b91505060209250610b3a94915060ff191682840152151560051b8201018680610b2c565b919082519283825260005b848110610bf6575050826000602080949584010152601f8019910116010190565b602081830181015184830182015201610bd5565b602081019081106001600160401b03821117610c2557604052565b634e487b7160e01b600052604160045260246000fd5b604081019081106001600160401b03821117610c2557604052565b606081019081106001600160401b03821117610c2557604052565b90601f801991011681019081106001600160401b03821117610c2557604052565b81601f82011215610ce8578035906001600160401b038211610c255760405192610cc6601f8401601f191660200185610c71565b82845260208383010111610ce857816000926020809301838601378301015290565b600080fd5b90600182811c92168015610d1d575b6020831014610d0757565b634e487b7160e01b600052602260045260246000fd5b91607f1691610cfc565b805115610d345760200190565b634e487b7160e01b600052603260045260246000fd5b6040519060a082018281106001600160401b03821117610c2557604052600060808360608152826020820152826040820152826060820152015256fe405787fa12a823e0f2b7631cc41b3ba8828b3321ca811111fa75cd3aa3bb5ace290decd9548b62a8d60345a988386fc84ba6bc95484008f6362f93160ef3e563a26469706673582212202b83dcc1b18ed826fd8500c83b2553c523a12bc7d13ab483bf1ac423a28cb26664736f6c63430008110033",
  "devdoc": {
    "author": "Zondax AG",
    "details": "Methods prefixed with mock_ will not be available in the real library. These methods are merely used to set mock state. Note that this interface will likely break in the future as we align it",
    "kind": "dev",
    "methods": {
      "change_owner_address(string)": {
        "params": {
          "addr": "New owner address"
        }
      },
      "get_available_balance()": {
        "returns": {
          "_0": "the available balance of this miner."
        }
      },
      "get_owner()": {
        "returns": {
          "_0": "the owner address of a Miner"
        }
      },
      "get_sector_size()": {
        "returns": {
          "_0": "the miner's sector size."
        }
      },
      "get_vesting_funds()": {
        "returns": {
          "_0": "the funds vesting in this miner as a list of (vesting_epoch, vesting_amount) tuples."
        }
      },
      "is_controlling_address((string))": {
        "params": {
          "params": "The \"controlling\" addresses are the Owner, the Worker, and all Control Addresses."
        },
        "returns": {
          "_0": "Whether the provided address is \"controlling\"."
        }
      }
    },
    "title": "This contract is a proxy to a built-in Miner actor. Calling one of its methods will result in a cross-actor call being performed. However, in this mock library, no actual call is performed.",
    "version": 1
  },
  "userdoc": {
    "kind": "user",
    "methods": {
      "change_beneficiary((string,int256,uint64))": {
        "notice": "Proposes or confirms a change of beneficiary address.A proposal must be submitted by the owner, and takes effect after approval of both the proposed beneficiary and current beneficiary, if applicable, any current beneficiary that has time and quota remaining.See FIP-0029, https://github.com/filecoin-project/FIPs/blob/master/FIPS/fip-0029.md"
      },
      "change_owner_address(string)": {
        "notice": "Proposes or confirms a change of owner address.If invoked by the current owner, proposes a new owner address for confirmation. If the proposed address is the current owner address, revokes any existing proposal that proposed address."
      },
      "constructor": {
        "notice": "(Mock method) Sets the owner of a Miner on contract deployment, which will be returned via get_owner()."
      },
      "get_available_balance()": {
        "notice": "This is calculated as actor balance - (vesting funds + pre-commit deposit + initial pledge requirement + fee debt)Can go negative if the miner is in IP debt."
      },
      "get_beneficiary()": {
        "notice": "This method is for use by other actors (such as those acting as beneficiaries), and to abstract the state representation for clients.Retrieves the currently active and proposed beneficiary information."
      },
      "get_owner()": {
        "notice": "Income and returned collateral are paid to this addressThis address is also allowed to change the worker address for the miner"
      },
      "mock_set_owner(string)": {
        "notice": "(Mock method) Sets the owner of a Miner, which will be returned via get_owner()."
      }
    },
    "version": 1
  },
  "storageLayout": {
    "storage": [
      {
        "astId": 820,
        "contract": "chain/FEVM-Hardhat-Kit/contracts/filecoinMockAPIs/MinerAPI.sol:MinerAPI",
        "label": "owner",
        "offset": 0,
        "slot": "0",
        "type": "t_string_storage"
      },
      {
        "astId": 823,
        "contract": "chain/FEVM-Hardhat-Kit/contracts/filecoinMockAPIs/MinerAPI.sol:MinerAPI",
        "label": "isBeneficiarySet",
        "offset": 0,
        "slot": "1",
        "type": "t_bool"
      },
      {
        "astId": 826,
        "contract": "chain/FEVM-Hardhat-Kit/contracts/filecoinMockAPIs/MinerAPI.sol:MinerAPI",
        "label": "activeBeneficiary",
        "offset": 0,
        "slot": "2",
        "type": "t_struct(ActiveBeneficiary)1205_storage"
      },
      {
        "astId": 831,
        "contract": "chain/FEVM-Hardhat-Kit/contracts/filecoinMockAPIs/MinerAPI.sol:MinerAPI",
        "label": "sectorSizesBytes",
        "offset": 0,
        "slot": "6",
        "type": "t_mapping(t_enum(SectorSize)1165,t_uint64)"
      }
    ],
    "types": {
      "t_bool": {
        "encoding": "inplace",
        "label": "bool",
        "numberOfBytes": "1"
      },
      "t_enum(SectorSize)1165": {
        "encoding": "inplace",
        "label": "enum CommonTypes.SectorSize",
        "numberOfBytes": "1"
      },
      "t_int256": {
        "encoding": "inplace",
        "label": "int256",
        "numberOfBytes": "32"
      },
      "t_mapping(t_enum(SectorSize)1165,t_uint64)": {
        "encoding": "mapping",
        "key": "t_enum(SectorSize)1165",
        "label": "mapping(enum CommonTypes.SectorSize => uint64)",
        "numberOfBytes": "32",
        "value": "t_uint64"
      },
      "t_string_storage": {
        "encoding": "bytes",
        "label": "string",
        "numberOfBytes": "32"
      },
      "t_struct(ActiveBeneficiary)1205_storage": {
        "encoding": "inplace",
        "label": "struct CommonTypes.ActiveBeneficiary",
        "members": [
          {
            "astId": 1201,
            "contract": "chain/FEVM-Hardhat-Kit/contracts/filecoinMockAPIs/MinerAPI.sol:MinerAPI",
            "label": "beneficiary",
            "offset": 0,
            "slot": "0",
            "type": "t_string_storage"
          },
          {
            "astId": 1204,
            "contract": "chain/FEVM-Hardhat-Kit/contracts/filecoinMockAPIs/MinerAPI.sol:MinerAPI",
            "label": "term",
            "offset": 0,
            "slot": "1",
            "type": "t_struct(BeneficiaryTerm)1199_storage"
          }
        ],
        "numberOfBytes": "128"
      },
      "t_struct(BeneficiaryTerm)1199_storage": {
        "encoding": "inplace",
        "label": "struct CommonTypes.BeneficiaryTerm",
        "members": [
          {
            "astId": 1194,
            "contract": "chain/FEVM-Hardhat-Kit/contracts/filecoinMockAPIs/MinerAPI.sol:MinerAPI",
            "label": "quota",
            "offset": 0,
            "slot": "0",
            "type": "t_int256"
          },
          {
            "astId": 1196,
            "contract": "chain/FEVM-Hardhat-Kit/contracts/filecoinMockAPIs/MinerAPI.sol:MinerAPI",
            "label": "used_quota",
            "offset": 0,
            "slot": "1",
            "type": "t_int256"
          },
          {
            "astId": 1198,
            "contract": "chain/FEVM-Hardhat-Kit/contracts/filecoinMockAPIs/MinerAPI.sol:MinerAPI",
            "label": "expiration",
            "offset": 0,
            "slot": "2",
            "type": "t_uint64"
          }
        ],
        "numberOfBytes": "96"
      },
      "t_uint64": {
        "encoding": "inplace",
        "label": "uint64",
        "numberOfBytes": "8"
      }
    }
  }
}