{
  "address": "0x16867D32426f89380d2804fF873e2633A8474C93",
  "abi": [
    {
      "anonymous": false,
      "inputs": [
        {
          "indexed": false,
          "internalType": "address",
          "name": "_collectionAddress",
          "type": "address"
        },
        {
          "indexed": false,
          "internalType": "address",
          "name": "_owner",
          "type": "address"
        }
      ],
      "name": "CollectionCreated",
      "type": "event"
    },
    {
      "anonymous": false,
      "inputs": [
        {
          "indexed": false,
          "internalType": "address",
          "name": "_collectionAddress",
          "type": "address"
        },
        {
          "indexed": false,
          "internalType": "uint256",
          "name": "_tokenId",
          "type": "uint256"
        }
      ],
      "name": "NFTMinted",
      "type": "event"
    },
    {
      "anonymous": false,
      "inputs": [
        {
          "indexed": true,
          "internalType": "address",
          "name": "previousOwner",
          "type": "address"
        },
        {
          "indexed": true,
          "internalType": "address",
          "name": "newOwner",
          "type": "address"
        }
      ],
      "name": "OwnershipTransferred",
      "type": "event"
    },
    {
      "inputs": [
        {
          "internalType": "address",
          "name": "",
          "type": "address"
        }
      ],
      "name": "collections",
      "outputs": [
        {
          "internalType": "contract Anc3streeToken",
          "name": "",
          "type": "address"
        }
      ],
      "stateMutability": "view",
      "type": "function"
    },
    {
      "inputs": [
        {
          "internalType": "string",
          "name": "_name",
          "type": "string"
        },
        {
          "internalType": "string",
          "name": "_symbol",
          "type": "string"
        },
        {
          "internalType": "string",
          "name": "_tokenUri",
          "type": "string"
        },
        {
          "internalType": "uint256",
          "name": "_maxSupply",
          "type": "uint256"
        }
      ],
      "name": "createCollection",
      "outputs": [
        {
          "internalType": "address",
          "name": "",
          "type": "address"
        }
      ],
      "stateMutability": "nonpayable",
      "type": "function"
    },
    {
      "inputs": [
        {
          "internalType": "address",
          "name": "_collectionAddress",
          "type": "address"
        }
      ],
      "name": "getCollectionBaseUri",
      "outputs": [
        {
          "internalType": "string",
          "name": "",
          "type": "string"
        }
      ],
      "stateMutability": "view",
      "type": "function"
    },
    {
      "inputs": [
        {
          "internalType": "address",
          "name": "_collectionAddress",
          "type": "address"
        }
      ],
      "name": "getCollectionMaxSupply",
      "outputs": [
        {
          "internalType": "uint256",
          "name": "",
          "type": "uint256"
        }
      ],
      "stateMutability": "view",
      "type": "function"
    },
    {
      "inputs": [
        {
          "internalType": "address",
          "name": "_collectionAddress",
          "type": "address"
        }
      ],
      "name": "getCollectionName",
      "outputs": [
        {
          "internalType": "string",
          "name": "",
          "type": "string"
        }
      ],
      "stateMutability": "view",
      "type": "function"
    },
    {
      "inputs": [
        {
          "internalType": "address",
          "name": "_ownerAddress",
          "type": "address"
        }
      ],
      "name": "getCollectionOfOwner",
      "outputs": [
        {
          "internalType": "address",
          "name": "",
          "type": "address"
        }
      ],
      "stateMutability": "view",
      "type": "function"
    },
    {
      "inputs": [
        {
          "internalType": "address",
          "name": "_collectionAddress",
          "type": "address"
        }
      ],
      "name": "getCollectionOwner",
      "outputs": [
        {
          "internalType": "address",
          "name": "",
          "type": "address"
        }
      ],
      "stateMutability": "view",
      "type": "function"
    },
    {
      "inputs": [
        {
          "internalType": "address",
          "name": "_collectionAddress",
          "type": "address"
        }
      ],
      "name": "getCollectionSymbol",
      "outputs": [
        {
          "internalType": "string",
          "name": "",
          "type": "string"
        }
      ],
      "stateMutability": "view",
      "type": "function"
    },
    {
      "inputs": [
        {
          "internalType": "address",
          "name": "_collectionAddress",
          "type": "address"
        },
        {
          "internalType": "uint256",
          "name": "_tokenId",
          "type": "uint256"
        }
      ],
      "name": "getTokenUri",
      "outputs": [
        {
          "internalType": "string",
          "name": "",
          "type": "string"
        }
      ],
      "stateMutability": "view",
      "type": "function"
    },
    {
      "inputs": [
        {
          "internalType": "address",
          "name": "_collectionAddress",
          "type": "address"
        },
        {
          "internalType": "address",
          "name": "familyMember",
          "type": "address"
        }
      ],
      "name": "mintFromCollection",
      "outputs": [
        {
          "internalType": "uint256",
          "name": "",
          "type": "uint256"
        }
      ],
      "stateMutability": "payable",
      "type": "function"
    },
    {
      "inputs": [],
      "name": "owner",
      "outputs": [
        {
          "internalType": "address",
          "name": "",
          "type": "address"
        }
      ],
      "stateMutability": "view",
      "type": "function"
    },
    {
      "inputs": [
        {
          "internalType": "address",
          "name": "",
          "type": "address"
        }
      ],
      "name": "ownerToCollection",
      "outputs": [
        {
          "internalType": "address",
          "name": "",
          "type": "address"
        }
      ],
      "stateMutability": "view",
      "type": "function"
    },
    {
      "inputs": [],
      "name": "renounceOwnership",
      "outputs": [],
      "stateMutability": "nonpayable",
      "type": "function"
    },
    {
      "inputs": [
        {
          "internalType": "address",
          "name": "newOwner",
          "type": "address"
        }
      ],
      "name": "transferOwnership",
      "outputs": [],
      "stateMutability": "nonpayable",
      "type": "function"
    }
  ],
  "transactionHash": "0xc00b4bfd3714dae653357aced354dac3957aa7ccf1d94c17f2af04a5431ad813",
  "args": [],
  "numDeployments": 1,
  "solcInputHash": "3bdb356693589c17972a8d265ae52fde",
  "bytecode": "0x608060405234801561001057600080fd5b50600160008190555061003561002a61003a60201b60201c565b61004260201b60201c565b610108565b600033905090565b6000600160009054906101000a900473ffffffffffffffffffffffffffffffffffffffff16905081600160006101000a81548173ffffffffffffffffffffffffffffffffffffffff021916908373ffffffffffffffffffffffffffffffffffffffff1602179055508173ffffffffffffffffffffffffffffffffffffffff168173ffffffffffffffffffffffffffffffffffffffff167f8be0079c531659141344cd1fd0a4f28419497f9722a3daafe3b4186f6b6457e060405160405180910390a35050565b614e1f806101176000396000f3fe608060405260043610620000f25760003560e01c8063745b69ca116200008b5780638da5cb5b11620000615780638da5cb5b1462000367578063943526c91462000397578063f2fde38b14620003db578063fab95f36146200040957620000f2565b8063745b69ca14620002a957806380f03b6814620002ed5780638808ffed146200033157620000f2565b80634f7e624c11620000cd5780634f7e624c14620001c35780635c66d3471462000207578063657b7e2a146200024b578063715018a6146200028f57620000f2565b80630e882fd314620000f757806333889199146200013b57806343add2e6146200017f575b600080fd5b3480156200010457600080fd5b506200012360048036038101906200011d91906200107f565b6200044d565b604051620001329190620011a1565b60405180910390f35b3480156200014857600080fd5b50620001676004803603810190620001619190620011ef565b620005e3565b604051620001769190620012bb565b60405180910390f35b3480156200018c57600080fd5b50620001ab6004803603810190620001a59190620011ef565b620006c2565b604051620001ba91906200134a565b60405180910390f35b348015620001d057600080fd5b50620001ef6004803603810190620001e99190620011ef565b620006f5565b604051620001fe9190620011a1565b60405180910390f35b3480156200021457600080fd5b506200023360048036038101906200022d9190620011ef565b6200075e565b604051620002429190620012bb565b60405180910390f35b3480156200025857600080fd5b50620002776004803603810190620002719190620011ef565b6200083d565b60405162000286919062001378565b60405180910390f35b3480156200029c57600080fd5b50620002a762000917565b005b348015620002b657600080fd5b50620002d56004803603810190620002cf9190620011ef565b6200092f565b604051620002e49190620011a1565b60405180910390f35b348015620002fa57600080fd5b50620003196004803603810190620003139190620011ef565b62000a09565b604051620003289190620012bb565b60405180910390f35b6200034f600480360381019062000349919062001395565b62000ae8565b6040516200035e919062001378565b60405180910390f35b3480156200037457600080fd5b506200037f62000c31565b6040516200038e9190620011a1565b60405180910390f35b348015620003a457600080fd5b50620003c36004803603810190620003bd9190620011ef565b62000c5b565b604051620003d29190620011a1565b60405180910390f35b348015620003e857600080fd5b50620004076004803603810190620004019190620011ef565b62000c8e565b005b3480156200041657600080fd5b506200043560048036038101906200042f9190620013dc565b62000d18565b604051620004449190620012bb565b60405180910390f35b60008088888888888888604051620004659062000fb4565b62000477979695949392919062001465565b604051809103906000f08015801562000494573d6000803e3d6000fd5b509050600081905081600260008373ffffffffffffffffffffffffffffffffffffffff1673ffffffffffffffffffffffffffffffffffffffff16815260200190815260200160002060006101000a81548173ffffffffffffffffffffffffffffffffffffffff021916908373ffffffffffffffffffffffffffffffffffffffff16021790555080600360003373ffffffffffffffffffffffffffffffffffffffff1673ffffffffffffffffffffffffffffffffffffffff16815260200190815260200160002060006101000a81548173ffffffffffffffffffffffffffffffffffffffff021916908373ffffffffffffffffffffffffffffffffffffffff1602179055507f5d0de243db1669e3a7056744cd715c625f0c1c348736c2c2d53d0ddebff1a6c78133604051620005cb929190620014cd565b60405180910390a18092505050979650505050505050565b6060600260008373ffffffffffffffffffffffffffffffffffffffff1673ffffffffffffffffffffffffffffffffffffffff16815260200190815260200160002060009054906101000a900473ffffffffffffffffffffffffffffffffffffffff1673ffffffffffffffffffffffffffffffffffffffff166395d89b416040518163ffffffff1660e01b8152600401600060405180830381865afa15801562000690573d6000803e3d6000fd5b505050506040513d6000823e3d601f19601f82011682018060405250810190620006bb919062001637565b9050919050565b60026020528060005260406000206000915054906101000a900473ffffffffffffffffffffffffffffffffffffffff1681565b6000600360008373ffffffffffffffffffffffffffffffffffffffff1673ffffffffffffffffffffffffffffffffffffffff16815260200190815260200160002060009054906101000a900473ffffffffffffffffffffffffffffffffffffffff169050919050565b6060600260008373ffffffffffffffffffffffffffffffffffffffff1673ffffffffffffffffffffffffffffffffffffffff16815260200190815260200160002060009054906101000a900473ffffffffffffffffffffffffffffffffffffffff1673ffffffffffffffffffffffffffffffffffffffff1663d547cfb76040518163ffffffff1660e01b8152600401600060405180830381865afa1580156200080b573d6000803e3d6000fd5b505050506040513d6000823e3d601f19601f8201168201806040525081019062000836919062001637565b9050919050565b6000600260008373ffffffffffffffffffffffffffffffffffffffff1673ffffffffffffffffffffffffffffffffffffffff16815260200190815260200160002060009054906101000a900473ffffffffffffffffffffffffffffffffffffffff1673ffffffffffffffffffffffffffffffffffffffff1663d5abeb016040518163ffffffff1660e01b8152600401602060405180830381865afa158015620008ea573d6000803e3d6000fd5b505050506040513d601f19601f820116820180604052508101906200091091906200169f565b9050919050565b6200092162000e05565b6200092d600062000e8a565b565b6000600260008373ffffffffffffffffffffffffffffffffffffffff1673ffffffffffffffffffffffffffffffffffffffff16815260200190815260200160002060009054906101000a900473ffffffffffffffffffffffffffffffffffffffff1673ffffffffffffffffffffffffffffffffffffffff16638da5cb5b6040518163ffffffff1660e01b8152600401602060405180830381865afa158015620009dc573d6000803e3d6000fd5b505050506040513d601f19601f8201168201806040525081019062000a029190620016e8565b9050919050565b6060600260008373ffffffffffffffffffffffffffffffffffffffff1673ffffffffffffffffffffffffffffffffffffffff16815260200190815260200160002060009054906101000a900473ffffffffffffffffffffffffffffffffffffffff1673ffffffffffffffffffffffffffffffffffffffff166306fdde036040518163ffffffff1660e01b8152600401600060405180830381865afa15801562000ab6573d6000803e3d6000fd5b505050506040513d6000823e3d601f19601f8201168201806040525081019062000ae1919062001637565b9050919050565b600062000af462000e05565b62000afe62000f50565b6000600260008573ffffffffffffffffffffffffffffffffffffffff1673ffffffffffffffffffffffffffffffffffffffff16815260200190815260200160002060009054906101000a900473ffffffffffffffffffffffffffffffffffffffff1673ffffffffffffffffffffffffffffffffffffffff16636a627842846040518263ffffffff1660e01b815260040162000b9a9190620011a1565b6020604051808303816000875af115801562000bba573d6000803e3d6000fd5b505050506040513d601f19601f8201168201806040525081019062000be091906200169f565b90507f4cc0a9c4a99ddc700de1af2c9f916a7cbfdb71f14801ccff94061ad1ef8a8040848260405162000c159291906200171a565b60405180910390a18091505062000c2b62000fa2565b92915050565b6000600160009054906101000a900473ffffffffffffffffffffffffffffffffffffffff16905090565b60036020528060005260406000206000915054906101000a900473ffffffffffffffffffffffffffffffffffffffff1681565b62000c9862000e05565b600073ffffffffffffffffffffffffffffffffffffffff168173ffffffffffffffffffffffffffffffffffffffff160362000d0a576040517f08c379a000000000000000000000000000000000000000000000000000000000815260040162000d0190620017bd565b60405180910390fd5b62000d158162000e8a565b50565b6060600260008473ffffffffffffffffffffffffffffffffffffffff1673ffffffffffffffffffffffffffffffffffffffff16815260200190815260200160002060009054906101000a900473ffffffffffffffffffffffffffffffffffffffff1673ffffffffffffffffffffffffffffffffffffffff1663c87b56dd836040518263ffffffff1660e01b815260040162000db4919062001378565b600060405180830381865afa15801562000dd2573d6000803e3d6000fd5b505050506040513d6000823e3d601f19601f8201168201806040525081019062000dfd919062001637565b905092915050565b62000e0f62000fac565b73ffffffffffffffffffffffffffffffffffffffff1662000e2f62000c31565b73ffffffffffffffffffffffffffffffffffffffff161462000e88576040517f08c379a000000000000000000000000000000000000000000000000000000000815260040162000e7f906200182f565b60405180910390fd5b565b6000600160009054906101000a900473ffffffffffffffffffffffffffffffffffffffff16905081600160006101000a81548173ffffffffffffffffffffffffffffffffffffffff021916908373ffffffffffffffffffffffffffffffffffffffff1602179055508173ffffffffffffffffffffffffffffffffffffffff168173ffffffffffffffffffffffffffffffffffffffff167f8be0079c531659141344cd1fd0a4f28419497f9722a3daafe3b4186f6b6457e060405160405180910390a35050565b60026000540362000f98576040517f08c379a000000000000000000000000000000000000000000000000000000000815260040162000f8f90620018a1565b60405180910390fd5b6002600081905550565b6001600081905550565b600033905090565b61352680620018c483390190565b6000604051905090565b600080fd5b600080fd5b600080fd5b600080fd5b600080fd5b60008083601f84011262000ffe5762000ffd62000fd6565b5b8235905067ffffffffffffffff8111156200101e576200101d62000fdb565b5b6020830191508360018202830111156200103d576200103c62000fe0565b5b9250929050565b6000819050919050565b620010598162001044565b81146200106557600080fd5b50565b60008135905062001079816200104e565b92915050565b60008060008060008060006080888a031215620010a157620010a062000fcc565b5b600088013567ffffffffffffffff811115620010c257620010c162000fd1565b5b620010d08a828b0162000fe5565b9750975050602088013567ffffffffffffffff811115620010f657620010f562000fd1565b5b620011048a828b0162000fe5565b9550955050604088013567ffffffffffffffff8111156200112a576200112962000fd1565b5b620011388a828b0162000fe5565b935093505060606200114d8a828b0162001068565b91505092959891949750929550565b600073ffffffffffffffffffffffffffffffffffffffff82169050919050565b600062001189826200115c565b9050919050565b6200119b816200117c565b82525050565b6000602082019050620011b8600083018462001190565b92915050565b620011c9816200117c565b8114620011d557600080fd5b50565b600081359050620011e981620011be565b92915050565b60006020828403121562001208576200120762000fcc565b5b60006200121884828501620011d8565b91505092915050565b600081519050919050565b600082825260208201905092915050565b60005b838110156200125d57808201518184015260208101905062001240565b60008484015250505050565b6000601f19601f8301169050919050565b6000620012878262001221565b6200129381856200122c565b9350620012a58185602086016200123d565b620012b08162001269565b840191505092915050565b60006020820190508181036000830152620012d781846200127a565b905092915050565b6000819050919050565b60006200130a62001304620012fe846200115c565b620012df565b6200115c565b9050919050565b60006200131e82620012e9565b9050919050565b6000620013328262001311565b9050919050565b620013448162001325565b82525050565b600060208201905062001361600083018462001339565b92915050565b620013728162001044565b82525050565b60006020820190506200138f600083018462001367565b92915050565b60008060408385031215620013af57620013ae62000fcc565b5b6000620013bf85828601620011d8565b9250506020620013d285828601620011d8565b9150509250929050565b60008060408385031215620013f657620013f562000fcc565b5b60006200140685828601620011d8565b9250506020620014198582860162001068565b9150509250929050565b82818337600083830152505050565b60006200144083856200122c565b93506200144f83858462001423565b6200145a8362001269565b840190509392505050565b600060808201905081810360008301526200148281898b62001432565b905081810360208301526200149981878962001432565b90508181036040830152620014b081858762001432565b9050620014c1606083018462001367565b98975050505050505050565b6000604082019050620014e4600083018562001190565b620014f3602083018462001190565b9392505050565b600080fd5b7f4e487b7100000000000000000000000000000000000000000000000000000000600052604160045260246000fd5b620015398262001269565b810181811067ffffffffffffffff821117156200155b576200155a620014ff565b5b80604052505050565b60006200157062000fc2565b90506200157e82826200152e565b919050565b600067ffffffffffffffff821115620015a157620015a0620014ff565b5b620015ac8262001269565b9050602081019050919050565b6000620015d0620015ca8462001583565b62001564565b905082815260208101848484011115620015ef57620015ee620014fa565b5b620015fc8482856200123d565b509392505050565b600082601f8301126200161c576200161b62000fd6565b5b81516200162e848260208601620015b9565b91505092915050565b60006020828403121562001650576200164f62000fcc565b5b600082015167ffffffffffffffff81111562001671576200167062000fd1565b5b6200167f8482850162001604565b91505092915050565b60008151905062001699816200104e565b92915050565b600060208284031215620016b857620016b762000fcc565b5b6000620016c88482850162001688565b91505092915050565b600081519050620016e281620011be565b92915050565b60006020828403121562001701576200170062000fcc565b5b60006200171184828501620016d1565b91505092915050565b600060408201905062001731600083018562001190565b62001740602083018462001367565b9392505050565b7f4f776e61626c653a206e6577206f776e657220697320746865207a65726f206160008201527f6464726573730000000000000000000000000000000000000000000000000000602082015250565b6000620017a56026836200122c565b9150620017b28262001747565b604082019050919050565b60006020820190508181036000830152620017d88162001796565b9050919050565b7f4f776e61626c653a2063616c6c6572206973206e6f7420746865206f776e6572600082015250565b6000620018176020836200122c565b91506200182482620017df565b602082019050919050565b600060208201905081810360008301526200184a8162001808565b9050919050565b7f5265656e7472616e637947756172643a207265656e7472616e742063616c6c00600082015250565b600062001889601f836200122c565b9150620018968262001851565b602082019050919050565b60006020820190508181036000830152620018bc816200187a565b905091905056fe60806040523480156200001157600080fd5b50604051620035263803806200352683398181016040528101906200003791906200033e565b838381600090816200004a91906200064e565b5080600190816200005c91906200064e565b5050506200007f62000073620000a260201b60201c565b620000aa60201b60201c565b80600a8190555081600990816200009791906200064e565b505050505062000735565b600033905090565b6000600760009054906101000a900473ffffffffffffffffffffffffffffffffffffffff16905081600760006101000a81548173ffffffffffffffffffffffffffffffffffffffff021916908373ffffffffffffffffffffffffffffffffffffffff1602179055508173ffffffffffffffffffffffffffffffffffffffff168173ffffffffffffffffffffffffffffffffffffffff167f8be0079c531659141344cd1fd0a4f28419497f9722a3daafe3b4186f6b6457e060405160405180910390a35050565b6000604051905090565b600080fd5b600080fd5b600080fd5b600080fd5b6000601f19601f8301169050919050565b7f4e487b7100000000000000000000000000000000000000000000000000000000600052604160045260246000fd5b620001d9826200018e565b810181811067ffffffffffffffff82111715620001fb57620001fa6200019f565b5b80604052505050565b60006200021062000170565b90506200021e8282620001ce565b919050565b600067ffffffffffffffff8211156200024157620002406200019f565b5b6200024c826200018e565b9050602081019050919050565b60005b83811015620002795780820151818401526020810190506200025c565b60008484015250505050565b60006200029c620002968462000223565b62000204565b905082815260208101848484011115620002bb57620002ba62000189565b5b620002c884828562000259565b509392505050565b600082601f830112620002e857620002e762000184565b5b8151620002fa84826020860162000285565b91505092915050565b6000819050919050565b620003188162000303565b81146200032457600080fd5b50565b60008151905062000338816200030d565b92915050565b600080600080608085870312156200035b576200035a6200017a565b5b600085015167ffffffffffffffff8111156200037c576200037b6200017f565b5b6200038a87828801620002d0565b945050602085015167ffffffffffffffff811115620003ae57620003ad6200017f565b5b620003bc87828801620002d0565b935050604085015167ffffffffffffffff811115620003e057620003df6200017f565b5b620003ee87828801620002d0565b9250506060620004018782880162000327565b91505092959194509250565b600081519050919050565b7f4e487b7100000000000000000000000000000000000000000000000000000000600052602260045260246000fd5b600060028204905060018216806200046057607f821691505b60208210810362000476576200047562000418565b5b50919050565b60008190508160005260206000209050919050565b60006020601f8301049050919050565b600082821b905092915050565b600060088302620004e07fffffffffffffffffffffffffffffffffffffffffffffffffffffffffffffffff82620004a1565b620004ec8683620004a1565b95508019841693508086168417925050509392505050565b6000819050919050565b60006200052f62000529620005238462000303565b62000504565b62000303565b9050919050565b6000819050919050565b6200054b836200050e565b620005636200055a8262000536565b848454620004ae565b825550505050565b600090565b6200057a6200056b565b6200058781848462000540565b505050565b5b81811015620005af57620005a360008262000570565b6001810190506200058d565b5050565b601f821115620005fe57620005c8816200047c565b620005d38462000491565b81016020851015620005e3578190505b620005fb620005f28562000491565b8301826200058c565b50505b505050565b600082821c905092915050565b6000620006236000198460080262000603565b1980831691505092915050565b60006200063e838362000610565b9150826002028217905092915050565b62000659826200040d565b67ffffffffffffffff8111156200067557620006746200019f565b5b62000681825462000447565b6200068e828285620005b3565b600060209050601f831160018114620006c65760008415620006b1578287015190505b620006bd858262000630565b8655506200072d565b601f198416620006d6866200047c565b60005b828110156200070057848901518255600182019150602085019450602081019050620006d9565b868310156200072057848901516200071c601f89168262000610565b8355505b6001600288020188555050505b505050505050565b612de180620007456000396000f3fe6080604052600436106101145760003560e01c8063715018a6116100a0578063c87b56dd11610064578063c87b56dd146103a2578063d547cfb7146103df578063d5abeb011461040a578063e985e9c514610435578063f2fde38b1461047257610114565b8063715018a6146102e35780638da5cb5b146102fa57806395d89b4114610325578063a22cb46514610350578063b88d4fde1461037957610114565b806323b872dd116100e757806323b872dd146101e757806342842e0e146102105780636352211e146102395780636a6278421461027657806370a08231146102a657610114565b806301ffc9a71461011957806306fdde0314610156578063081812fc14610181578063095ea7b3146101be575b600080fd5b34801561012557600080fd5b50610140600480360381019061013b9190611edc565b61049b565b60405161014d9190611f24565b60405180910390f35b34801561016257600080fd5b5061016b61057d565b6040516101789190611fcf565b60405180910390f35b34801561018d57600080fd5b506101a860048036038101906101a39190612027565b61060f565b6040516101b59190612095565b60405180910390f35b3480156101ca57600080fd5b506101e560048036038101906101e091906120dc565b610655565b005b3480156101f357600080fd5b5061020e6004803603810190610209919061211c565b61076c565b005b34801561021c57600080fd5b506102376004803603810190610232919061211c565b6107cc565b005b34801561024557600080fd5b50610260600480360381019061025b9190612027565b6107ec565b60405161026d9190612095565b60405180910390f35b610290600480360381019061028b919061216f565b610872565b60405161029d91906121ab565b60405180910390f35b3480156102b257600080fd5b506102cd60048036038101906102c8919061216f565b6108f4565b6040516102da91906121ab565b60405180910390f35b3480156102ef57600080fd5b506102f86109ab565b005b34801561030657600080fd5b5061030f6109bf565b60405161031c9190612095565b60405180910390f35b34801561033157600080fd5b5061033a6109e9565b6040516103479190611fcf565b60405180910390f35b34801561035c57600080fd5b50610377600480360381019061037291906121f2565b610a7b565b005b34801561038557600080fd5b506103a0600480360381019061039b9190612367565b610a91565b005b3480156103ae57600080fd5b506103c960048036038101906103c49190612027565b610af3565b6040516103d69190611fcf565b60405180910390f35b3480156103eb57600080fd5b506103f4610c05565b6040516104019190611fcf565b60405180910390f35b34801561041657600080fd5b5061041f610c93565b60405161042c91906121ab565b60405180910390f35b34801561044157600080fd5b5061045c600480360381019061045791906123ea565b610c99565b6040516104699190611f24565b60405180910390f35b34801561047e57600080fd5b506104996004803603810190610494919061216f565b610d2d565b005b60007f80ac58cd000000000000000000000000000000000000000000000000000000007bffffffffffffffffffffffffffffffffffffffffffffffffffffffff1916827bffffffffffffffffffffffffffffffffffffffffffffffffffffffff1916148061056657507f5b5e139f000000000000000000000000000000000000000000000000000000007bffffffffffffffffffffffffffffffffffffffffffffffffffffffff1916827bffffffffffffffffffffffffffffffffffffffffffffffffffffffff1916145b80610576575061057582610db0565b5b9050919050565b60606000805461058c90612459565b80601f01602080910402602001604051908101604052809291908181526020018280546105b890612459565b80156106055780601f106105da57610100808354040283529160200191610605565b820191906000526020600020905b8154815290600101906020018083116105e857829003601f168201915b5050505050905090565b600061061a82610e1a565b6004600083815260200190815260200160002060009054906101000a900473ffffffffffffffffffffffffffffffffffffffff169050919050565b6000610660826107ec565b90508073ffffffffffffffffffffffffffffffffffffffff168373ffffffffffffffffffffffffffffffffffffffff16036106d0576040517f08c379a00000000000000000000000000000000000000000000000000000000081526004016106c7906124fc565b60405180910390fd5b8073ffffffffffffffffffffffffffffffffffffffff166106ef610e65565b73ffffffffffffffffffffffffffffffffffffffff16148061071e575061071d81610718610e65565b610c99565b5b61075d576040517f08c379a00000000000000000000000000000000000000000000000000000000081526004016107549061258e565b60405180910390fd5b6107678383610e6d565b505050565b61077d610777610e65565b82610f26565b6107bc576040517f08c379a00000000000000000000000000000000000000000000000000000000081526004016107b390612620565b60405180910390fd5b6107c7838383610fbb565b505050565b6107e783838360405180602001604052806000815250610a91565b505050565b6000806107f8836112b4565b9050600073ffffffffffffffffffffffffffffffffffffffff168173ffffffffffffffffffffffffffffffffffffffff1603610869576040517f08c379a00000000000000000000000000000000000000000000000000000000081526004016108609061268c565b60405180910390fd5b80915050919050565b600061087c6112f1565b600a54610889600861136f565b106108c9576040517f08c379a00000000000000000000000000000000000000000000000000000000081526004016108c0906126f8565b60405180910390fd5b60006108d5600861136f565b90506108e1600861137d565b6108eb8382611393565b80915050919050565b60008073ffffffffffffffffffffffffffffffffffffffff168273ffffffffffffffffffffffffffffffffffffffff1603610964576040517f08c379a000000000000000000000000000000000000000000000000000000000815260040161095b9061278a565b60405180910390fd5b600360008373ffffffffffffffffffffffffffffffffffffffff1673ffffffffffffffffffffffffffffffffffffffff168152602001908152602001600020549050919050565b6109b36112f1565b6109bd60006115b0565b565b6000600760009054906101000a900473ffffffffffffffffffffffffffffffffffffffff16905090565b6060600180546109f890612459565b80601f0160208091040260200160405190810160405280929190818152602001828054610a2490612459565b8015610a715780601f10610a4657610100808354040283529160200191610a71565b820191906000526020600020905b815481529060010190602001808311610a5457829003601f168201915b5050505050905090565b610a8d610a86610e65565b8383611676565b5050565b610aa2610a9c610e65565b83610f26565b610ae1576040517f08c379a0000000000000000000000000000000000000000000000000000000008152600401610ad890612620565b60405180910390fd5b610aed848484846117e2565b50505050565b6060610afe82610e1a565b6000600660008481526020019081526020016000208054610b1e90612459565b80601f0160208091040260200160405190810160405280929190818152602001828054610b4a90612459565b8015610b975780601f10610b6c57610100808354040283529160200191610b97565b820191906000526020600020905b815481529060010190602001808311610b7a57829003601f168201915b505050505090506000610ba861183e565b90506000815103610bbd578192505050610c00565b600082511115610bf2578082604051602001610bda9291906127e6565b60405160208183030381529060405292505050610c00565b610bfb846118d0565b925050505b919050565b60098054610c1290612459565b80601f0160208091040260200160405190810160405280929190818152602001828054610c3e90612459565b8015610c8b5780601f10610c6057610100808354040283529160200191610c8b565b820191906000526020600020905b815481529060010190602001808311610c6e57829003601f168201915b505050505081565b600a5481565b6000600560008473ffffffffffffffffffffffffffffffffffffffff1673ffffffffffffffffffffffffffffffffffffffff16815260200190815260200160002060008373ffffffffffffffffffffffffffffffffffffffff1673ffffffffffffffffffffffffffffffffffffffff16815260200190815260200160002060009054906101000a900460ff16905092915050565b610d356112f1565b600073ffffffffffffffffffffffffffffffffffffffff168173ffffffffffffffffffffffffffffffffffffffff1603610da4576040517f08c379a0000000000000000000000000000000000000000000000000000000008152600401610d9b9061287c565b60405180910390fd5b610dad816115b0565b50565b60007f01ffc9a7000000000000000000000000000000000000000000000000000000007bffffffffffffffffffffffffffffffffffffffffffffffffffffffff1916827bffffffffffffffffffffffffffffffffffffffffffffffffffffffff1916149050919050565b610e2381611938565b610e62576040517f08c379a0000000000000000000000000000000000000000000000000000000008152600401610e599061268c565b60405180910390fd5b50565b600033905090565b816004600083815260200190815260200160002060006101000a81548173ffffffffffffffffffffffffffffffffffffffff021916908373ffffffffffffffffffffffffffffffffffffffff160217905550808273ffffffffffffffffffffffffffffffffffffffff16610ee0836107ec565b73ffffffffffffffffffffffffffffffffffffffff167f8c5be1e5ebec7d5bd14f71427d1e84f3dd0314c0f7b2291e5b200ac8c7c3b92560405160405180910390a45050565b600080610f32836107ec565b90508073ffffffffffffffffffffffffffffffffffffffff168473ffffffffffffffffffffffffffffffffffffffff161480610f745750610f738185610c99565b5b80610fb257508373ffffffffffffffffffffffffffffffffffffffff16610f9a8461060f565b73ffffffffffffffffffffffffffffffffffffffff16145b91505092915050565b8273ffffffffffffffffffffffffffffffffffffffff16610fdb826107ec565b73ffffffffffffffffffffffffffffffffffffffff1614611031576040517f08c379a00000000000000000000000000000000000000000000000000000000081526004016110289061290e565b60405180910390fd5b600073ffffffffffffffffffffffffffffffffffffffff168273ffffffffffffffffffffffffffffffffffffffff16036110a0576040517f08c379a0000000000000000000000000000000000000000000000000000000008152600401611097906129a0565b60405180910390fd5b6110ad8383836001611979565b8273ffffffffffffffffffffffffffffffffffffffff166110cd826107ec565b73ffffffffffffffffffffffffffffffffffffffff1614611123576040517f08c379a000000000000000000000000000000000000000000000000000000000815260040161111a9061290e565b60405180910390fd5b6004600082815260200190815260200160002060006101000a81549073ffffffffffffffffffffffffffffffffffffffff02191690556001600360008573ffffffffffffffffffffffffffffffffffffffff1673ffffffffffffffffffffffffffffffffffffffff168152602001908152602001600020600082825403925050819055506001600360008473ffffffffffffffffffffffffffffffffffffffff1673ffffffffffffffffffffffffffffffffffffffff16815260200190815260200160002060008282540192505081905550816002600083815260200190815260200160002060006101000a81548173ffffffffffffffffffffffffffffffffffffffff021916908373ffffffffffffffffffffffffffffffffffffffff160217905550808273ffffffffffffffffffffffffffffffffffffffff168473ffffffffffffffffffffffffffffffffffffffff167fddf252ad1be2c89b69c2b068fc378daa952ba7f163c4a11628f55a4df523b3ef60405160405180910390a46112af8383836001611a9f565b505050565b60006002600083815260200190815260200160002060009054906101000a900473ffffffffffffffffffffffffffffffffffffffff169050919050565b6112f9610e65565b73ffffffffffffffffffffffffffffffffffffffff166113176109bf565b73ffffffffffffffffffffffffffffffffffffffff161461136d576040517f08c379a000000000000000000000000000000000000000000000000000000000815260040161136490612a0c565b60405180910390fd5b565b600081600001549050919050565b6001816000016000828254019250508190555050565b600073ffffffffffffffffffffffffffffffffffffffff168273ffffffffffffffffffffffffffffffffffffffff1603611402576040517f08c379a00000000000000000000000000000000000000000000000000000000081526004016113f990612a78565b60405180910390fd5b61140b81611938565b1561144b576040517f08c379a000000000000000000000000000000000000000000000000000000000815260040161144290612ae4565b60405180910390fd5b611459600083836001611979565b61146281611938565b156114a2576040517f08c379a000000000000000000000000000000000000000000000000000000000815260040161149990612ae4565b60405180910390fd5b6001600360008473ffffffffffffffffffffffffffffffffffffffff1673ffffffffffffffffffffffffffffffffffffffff16815260200190815260200160002060008282540192505081905550816002600083815260200190815260200160002060006101000a81548173ffffffffffffffffffffffffffffffffffffffff021916908373ffffffffffffffffffffffffffffffffffffffff160217905550808273ffffffffffffffffffffffffffffffffffffffff16600073ffffffffffffffffffffffffffffffffffffffff167fddf252ad1be2c89b69c2b068fc378daa952ba7f163c4a11628f55a4df523b3ef60405160405180910390a46115ac600083836001611a9f565b5050565b6000600760009054906101000a900473ffffffffffffffffffffffffffffffffffffffff16905081600760006101000a81548173ffffffffffffffffffffffffffffffffffffffff021916908373ffffffffffffffffffffffffffffffffffffffff1602179055508173ffffffffffffffffffffffffffffffffffffffff168173ffffffffffffffffffffffffffffffffffffffff167f8be0079c531659141344cd1fd0a4f28419497f9722a3daafe3b4186f6b6457e060405160405180910390a35050565b8173ffffffffffffffffffffffffffffffffffffffff168373ffffffffffffffffffffffffffffffffffffffff16036116e4576040517f08c379a00000000000000000000000000000000000000000000000000000000081526004016116db90612b50565b60405180910390fd5b80600560008573ffffffffffffffffffffffffffffffffffffffff1673ffffffffffffffffffffffffffffffffffffffff16815260200190815260200160002060008473ffffffffffffffffffffffffffffffffffffffff1673ffffffffffffffffffffffffffffffffffffffff16815260200190815260200160002060006101000a81548160ff0219169083151502179055508173ffffffffffffffffffffffffffffffffffffffff168373ffffffffffffffffffffffffffffffffffffffff167f17307eab39ab6107e8899845ad3d59bd9653f200f220920489ca2b5937696c31836040516117d59190611f24565b60405180910390a3505050565b6117ed848484610fbb565b6117f984848484611aa5565b611838576040517f08c379a000000000000000000000000000000000000000000000000000000000815260040161182f90612be2565b60405180910390fd5b50505050565b60606009805461184d90612459565b80601f016020809104026020016040519081016040528092919081815260200182805461187990612459565b80156118c65780601f1061189b576101008083540402835291602001916118c6565b820191906000526020600020905b8154815290600101906020018083116118a957829003601f168201915b5050505050905090565b60606118db82610e1a565b60006118e561183e565b905060008151116119055760405180602001604052806000815250611930565b8061190f84611c2c565b6040516020016119209291906127e6565b6040516020818303038152906040525b915050919050565b60008073ffffffffffffffffffffffffffffffffffffffff1661195a836112b4565b73ffffffffffffffffffffffffffffffffffffffff1614159050919050565b6001811115611a9957600073ffffffffffffffffffffffffffffffffffffffff168473ffffffffffffffffffffffffffffffffffffffff1614611a0d5780600360008673ffffffffffffffffffffffffffffffffffffffff1673ffffffffffffffffffffffffffffffffffffffff1681526020019081526020016000206000828254611a059190612c31565b925050819055505b600073ffffffffffffffffffffffffffffffffffffffff168373ffffffffffffffffffffffffffffffffffffffff1614611a985780600360008573ffffffffffffffffffffffffffffffffffffffff1673ffffffffffffffffffffffffffffffffffffffff1681526020019081526020016000206000828254611a909190612c65565b925050819055505b5b50505050565b50505050565b6000611ac68473ffffffffffffffffffffffffffffffffffffffff16611cfa565b15611c1f578373ffffffffffffffffffffffffffffffffffffffff1663150b7a02611aef610e65565b8786866040518563ffffffff1660e01b8152600401611b119493929190612cee565b6020604051808303816000875af1925050508015611b4d57506040513d601f19601f82011682018060405250810190611b4a9190612d4f565b60015b611bcf573d8060008114611b7d576040519150601f19603f3d011682016040523d82523d6000602084013e611b82565b606091505b506000815103611bc7576040517f08c379a0000000000000000000000000000000000000000000000000000000008152600401611bbe90612be2565b60405180910390fd5b805181602001fd5b63150b7a0260e01b7bffffffffffffffffffffffffffffffffffffffffffffffffffffffff1916817bffffffffffffffffffffffffffffffffffffffffffffffffffffffff191614915050611c24565b600190505b949350505050565b606060006001611c3b84611d1d565b01905060008167ffffffffffffffff811115611c5a57611c5961223c565b5b6040519080825280601f01601f191660200182016040528015611c8c5781602001600182028036833780820191505090505b509050600082602001820190505b600115611cef578080600190039150507f3031323334353637383961626364656600000000000000000000000000000000600a86061a8153600a8581611ce357611ce2612d7c565b5b04945060008503611c9a575b819350505050919050565b6000808273ffffffffffffffffffffffffffffffffffffffff163b119050919050565b600080600090507a184f03e93ff9f4daa797ed6e38ed64bf6a1f0100000000000000008310611d7b577a184f03e93ff9f4daa797ed6e38ed64bf6a1f0100000000000000008381611d7157611d70612d7c565b5b0492506040810190505b6d04ee2d6d415b85acef81000000008310611db8576d04ee2d6d415b85acef81000000008381611dae57611dad612d7c565b5b0492506020810190505b662386f26fc100008310611de757662386f26fc100008381611ddd57611ddc612d7c565b5b0492506010810190505b6305f5e1008310611e10576305f5e1008381611e0657611e05612d7c565b5b0492506008810190505b6127108310611e35576127108381611e2b57611e2a612d7c565b5b0492506004810190505b60648310611e585760648381611e4e57611e4d612d7c565b5b0492506002810190505b600a8310611e67576001810190505b80915050919050565b6000604051905090565b600080fd5b600080fd5b60007fffffffff0000000000000000000000000000000000000000000000000000000082169050919050565b611eb981611e84565b8114611ec457600080fd5b50565b600081359050611ed681611eb0565b92915050565b600060208284031215611ef257611ef1611e7a565b5b6000611f0084828501611ec7565b91505092915050565b60008115159050919050565b611f1e81611f09565b82525050565b6000602082019050611f396000830184611f15565b92915050565b600081519050919050565b600082825260208201905092915050565b60005b83811015611f79578082015181840152602081019050611f5e565b60008484015250505050565b6000601f19601f8301169050919050565b6000611fa182611f3f565b611fab8185611f4a565b9350611fbb818560208601611f5b565b611fc481611f85565b840191505092915050565b60006020820190508181036000830152611fe98184611f96565b905092915050565b6000819050919050565b61200481611ff1565b811461200f57600080fd5b50565b60008135905061202181611ffb565b92915050565b60006020828403121561203d5761203c611e7a565b5b600061204b84828501612012565b91505092915050565b600073ffffffffffffffffffffffffffffffffffffffff82169050919050565b600061207f82612054565b9050919050565b61208f81612074565b82525050565b60006020820190506120aa6000830184612086565b92915050565b6120b981612074565b81146120c457600080fd5b50565b6000813590506120d6816120b0565b92915050565b600080604083850312156120f3576120f2611e7a565b5b6000612101858286016120c7565b925050602061211285828601612012565b9150509250929050565b60008060006060848603121561213557612134611e7a565b5b6000612143868287016120c7565b9350506020612154868287016120c7565b925050604061216586828701612012565b9150509250925092565b60006020828403121561218557612184611e7a565b5b6000612193848285016120c7565b91505092915050565b6121a581611ff1565b82525050565b60006020820190506121c0600083018461219c565b92915050565b6121cf81611f09565b81146121da57600080fd5b50565b6000813590506121ec816121c6565b92915050565b6000806040838503121561220957612208611e7a565b5b6000612217858286016120c7565b9250506020612228858286016121dd565b9150509250929050565b600080fd5b600080fd5b7f4e487b7100000000000000000000000000000000000000000000000000000000600052604160045260246000fd5b61227482611f85565b810181811067ffffffffffffffff821117156122935761229261223c565b5b80604052505050565b60006122a6611e70565b90506122b2828261226b565b919050565b600067ffffffffffffffff8211156122d2576122d161223c565b5b6122db82611f85565b9050602081019050919050565b82818337600083830152505050565b600061230a612305846122b7565b61229c565b90508281526020810184848401111561232657612325612237565b5b6123318482856122e8565b509392505050565b600082601f83011261234e5761234d612232565b5b813561235e8482602086016122f7565b91505092915050565b6000806000806080858703121561238157612380611e7a565b5b600061238f878288016120c7565b94505060206123a0878288016120c7565b93505060406123b187828801612012565b925050606085013567ffffffffffffffff8111156123d2576123d1611e7f565b5b6123de87828801612339565b91505092959194509250565b6000806040838503121561240157612400611e7a565b5b600061240f858286016120c7565b9250506020612420858286016120c7565b9150509250929050565b7f4e487b7100000000000000000000000000000000000000000000000000000000600052602260045260246000fd5b6000600282049050600182168061247157607f821691505b6020821081036124845761248361242a565b5b50919050565b7f4552433732313a20617070726f76616c20746f2063757272656e74206f776e6560008201527f7200000000000000000000000000000000000000000000000000000000000000602082015250565b60006124e6602183611f4a565b91506124f18261248a565b604082019050919050565b60006020820190508181036000830152612515816124d9565b9050919050565b7f4552433732313a20617070726f76652063616c6c6572206973206e6f7420746f60008201527f6b656e206f776e6572206f7220617070726f76656420666f7220616c6c000000602082015250565b6000612578603d83611f4a565b91506125838261251c565b604082019050919050565b600060208201905081810360008301526125a78161256b565b9050919050565b7f4552433732313a2063616c6c6572206973206e6f7420746f6b656e206f776e6560008201527f72206f7220617070726f76656400000000000000000000000000000000000000602082015250565b600061260a602d83611f4a565b9150612615826125ae565b604082019050919050565b60006020820190508181036000830152612639816125fd565b9050919050565b7f4552433732313a20696e76616c696420746f6b656e2049440000000000000000600082015250565b6000612676601883611f4a565b915061268182612640565b602082019050919050565b600060208201905081810360008301526126a581612669565b9050919050565b7f4d617820737570706c7920616c726561647920726561636865642e0000000000600082015250565b60006126e2601b83611f4a565b91506126ed826126ac565b602082019050919050565b60006020820190508181036000830152612711816126d5565b9050919050565b7f4552433732313a2061646472657373207a65726f206973206e6f74206120766160008201527f6c6964206f776e65720000000000000000000000000000000000000000000000602082015250565b6000612774602983611f4a565b915061277f82612718565b604082019050919050565b600060208201905081810360008301526127a381612767565b9050919050565b600081905092915050565b60006127c082611f3f565b6127ca81856127aa565b93506127da818560208601611f5b565b80840191505092915050565b60006127f282856127b5565b91506127fe82846127b5565b91508190509392505050565b7f4f776e61626c653a206e6577206f776e657220697320746865207a65726f206160008201527f6464726573730000000000000000000000000000000000000000000000000000602082015250565b6000612866602683611f4a565b91506128718261280a565b604082019050919050565b6000602082019050818103600083015261289581612859565b9050919050565b7f4552433732313a207472616e736665722066726f6d20696e636f72726563742060008201527f6f776e6572000000000000000000000000000000000000000000000000000000602082015250565b60006128f8602583611f4a565b91506129038261289c565b604082019050919050565b60006020820190508181036000830152612927816128eb565b9050919050565b7f4552433732313a207472616e7366657220746f20746865207a65726f2061646460008201527f7265737300000000000000000000000000000000000000000000000000000000602082015250565b600061298a602483611f4a565b91506129958261292e565b604082019050919050565b600060208201905081810360008301526129b98161297d565b9050919050565b7f4f776e61626c653a2063616c6c6572206973206e6f7420746865206f776e6572600082015250565b60006129f6602083611f4a565b9150612a01826129c0565b602082019050919050565b60006020820190508181036000830152612a25816129e9565b9050919050565b7f4552433732313a206d696e7420746f20746865207a65726f2061646472657373600082015250565b6000612a62602083611f4a565b9150612a6d82612a2c565b602082019050919050565b60006020820190508181036000830152612a9181612a55565b9050919050565b7f4552433732313a20746f6b656e20616c7265616479206d696e74656400000000600082015250565b6000612ace601c83611f4a565b9150612ad982612a98565b602082019050919050565b60006020820190508181036000830152612afd81612ac1565b9050919050565b7f4552433732313a20617070726f766520746f2063616c6c657200000000000000600082015250565b6000612b3a601983611f4a565b9150612b4582612b04565b602082019050919050565b60006020820190508181036000830152612b6981612b2d565b9050919050565b7f4552433732313a207472616e7366657220746f206e6f6e20455243373231526560008201527f63656976657220696d706c656d656e7465720000000000000000000000000000602082015250565b6000612bcc603283611f4a565b9150612bd782612b70565b604082019050919050565b60006020820190508181036000830152612bfb81612bbf565b9050919050565b7f4e487b7100000000000000000000000000000000000000000000000000000000600052601160045260246000fd5b6000612c3c82611ff1565b9150612c4783611ff1565b9250828203905081811115612c5f57612c5e612c02565b5b92915050565b6000612c7082611ff1565b9150612c7b83611ff1565b9250828201905080821115612c9357612c92612c02565b5b92915050565b600081519050919050565b600082825260208201905092915050565b6000612cc082612c99565b612cca8185612ca4565b9350612cda818560208601611f5b565b612ce381611f85565b840191505092915050565b6000608082019050612d036000830187612086565b612d106020830186612086565b612d1d604083018561219c565b8181036060830152612d2f8184612cb5565b905095945050505050565b600081519050612d4981611eb0565b92915050565b600060208284031215612d6557612d64611e7a565b5b6000612d7384828501612d3a565b91505092915050565b7f4e487b7100000000000000000000000000000000000000000000000000000000600052601260045260246000fdfea26469706673582212202439a400ed9c0fea746c6056f3a70d5e503a4e18aadb853cf5a389ad5954cbdc64736f6c63430008110033a26469706673582212206fb25cb65ad5c16e81d42dd1f46403fafc8853b0cbf20996aa6d46990002d0ff64736f6c63430008110033",
  "devdoc": {
    "author": "Anc3stree",
    "kind": "dev",
    "methods": {
      "owner()": {
        "details": "Returns the address of the current owner."
      },
      "renounceOwnership()": {
        "details": "Leaves the contract without owner. It will not be possible to call `onlyOwner` functions anymore. Can only be called by the current owner. NOTE: Renouncing ownership will leave the contract without an owner, thereby removing any functionality that is only available to the owner."
      },
      "transferOwnership(address)": {
        "details": "Transfers ownership of the contract to a new account (`newOwner`). Can only be called by the current owner."
      }
    },
    "title": "Factory ERC721 Contract ",
    "version": 1
  },
  "userdoc": {
    "kind": "user",
    "methods": {
      "collections(address)": {
        "notice": "Maps the collection addresses to the collection contracts"
      },
      "createCollection(string,string,string,uint256)": {
        "notice": "Create a new collection"
      },
      "getCollectionBaseUri(address)": {
        "notice": "Returns the base uri of a collection"
      },
      "getCollectionMaxSupply(address)": {
        "notice": "Returns the max supply of tokens that a collection allows"
      },
      "getCollectionName(address)": {
        "notice": "Returns the name of a collection"
      },
      "getCollectionOwner(address)": {
        "notice": "Returns the owner of a collection"
      },
      "getCollectionSymbol(address)": {
        "notice": "Returns the symbol of a collection"
      },
      "getTokenUri(address,uint256)": {
        "notice": "Returns the uri of a token"
      },
      "mintFromCollection(address,address)": {
        "notice": "Mint a token from a chosen collection"
      },
      "ownerToCollection(address)": {
        "notice": "Maps the collection addresses to the contract owner addresses "
      }
    },
    "version": 1
  },
  "storageLayout": {
    "storage": [
      {
        "astId": 123,
        "contract": "chain/FEVM-Hardhat-Kit/contracts/NftFactory.sol:NFTFactory",
        "label": "_status",
        "offset": 0,
        "slot": "0",
        "type": "t_uint256"
      },
      {
        "astId": 7,
        "contract": "chain/FEVM-Hardhat-Kit/contracts/NftFactory.sol:NFTFactory",
        "label": "_owner",
        "offset": 0,
        "slot": "1",
        "type": "t_address"
      },
      {
        "astId": 3022,
        "contract": "chain/FEVM-Hardhat-Kit/contracts/NftFactory.sol:NFTFactory",
        "label": "collections",
        "offset": 0,
        "slot": "2",
        "type": "t_mapping(t_address,t_contract(Anc3streeToken)2994)"
      },
      {
        "astId": 3027,
        "contract": "chain/FEVM-Hardhat-Kit/contracts/NftFactory.sol:NFTFactory",
        "label": "ownerToCollection",
        "offset": 0,
        "slot": "3",
        "type": "t_mapping(t_address,t_address)"
      }
    ],
    "types": {
      "t_address": {
        "encoding": "inplace",
        "label": "address",
        "numberOfBytes": "20"
      },
      "t_contract(Anc3streeToken)2994": {
        "encoding": "inplace",
        "label": "contract Anc3streeToken",
        "numberOfBytes": "20"
      },
      "t_mapping(t_address,t_address)": {
        "encoding": "mapping",
        "key": "t_address",
        "label": "mapping(address => address)",
        "numberOfBytes": "32",
        "value": "t_address"
      },
      "t_mapping(t_address,t_contract(Anc3streeToken)2994)": {
        "encoding": "mapping",
        "key": "t_address",
        "label": "mapping(address => contract Anc3streeToken)",
        "numberOfBytes": "32",
        "value": "t_contract(Anc3streeToken)2994"
      },
      "t_uint256": {
        "encoding": "inplace",
        "label": "uint256",
        "numberOfBytes": "32"
      }
    }
  }
}